{
  "bits": "1a6a93b3",
  "chainwork": "00000000000000000000000000000000000000000000000052d3424e95383558",
  "confirmations": 748688,
  "difficulty": 157416.4018436489,
  "hash": "0000000000005e5c28343b9ffd104931077012d0ce93e57a4a4082771f2de3da",
  "height": 123321,
  "mediantime": 1305130878,
  "merkleroot": "e5dbb7b33277b280059ea86866ca66be80072e22ba3215dd29d1aeaf05529dc1",
  "nTx": 8,
  "nextblockhash": "00000000000038a25c178707b64535c2fb8d36a70e3093b36f866849e9539d55",
  "nonce": 1622957241,
  "previousblockhash": "00000000000016c0f1e1dd4c2db7cdb772d22a024c9195cf3bf625eb394b6df0",
  "size": 3068,
  "strippedsize": 3068,
  "time": 1305132066,
  "tx": [
    {
      "hash": "255fb8ff561fc1668c79fbf902f394ffd1fbf29797d6d9266821ca4baef56906",
      "hex": "01000000010000000000000000000000000000000000000000000000000000000000000000ffffffff0704b3936a1a0128ffffffff014034152a010000004341048fa88c95a28485c3b493bf85e83b4558d971acf272881dc1867b7f79d30258f8c80030391682e48d5f58c2213bb84049718a136483ebc77462907ea03a801c5bac00000000",
      "locktime": 0,
      "size": 134,
      "txid": "255fb8ff561fc1668c79fbf902f394ffd1fbf29797d6d9266821ca4baef56906",
      "version": 1,
      "vin": [
        {
          "coinbase": "04b3936a1a0128",
          "sequence": 4294967295
        }
      ],
      "vout": [
        {
          "n": 0,
          "scriptPubKey": {
            "asm": "048fa88c95a28485c3b493bf85e83b4558d971acf272881dc1867b7f79d30258f8c80030391682e48d5f58c2213bb84049718a136483ebc77462907ea03a801c5b OP_CHECKSIG",
            "desc": "pk(048fa88c95a28485c3b493bf85e83b4558d971acf272881dc1867b7f79d30258f8c80030391682e48d5f58c2213bb84049718a136483ebc77462907ea03a801c5b)#pxlyzqac",
            "hex": "41048fa88c95a28485c3b493bf85e83b4558d971acf272881dc1867b7f79d30258f8c80030391682e48d5f58c2213bb84049718a136483ebc77462907ea03a801c5bac",
            "type": "pubkey"
          },
          "value": 50.01
        }
      ],
      "vsize": 134,
      "weight": 536
    },
    {
      "fee": 0.0,
      "hash": "551d33c93e4a7d7753b621bd275314ae4fe9741a9b4e54894d36138614d182e9",
      "hex": "010000000194627ea1688cdcbdc35cca6830dba8f47eff624a7102e4df719b2fd80939eb2f000000008b4830450220677d594892bcd2f27e0a23db08c48c74410610a3dfed1a221470677bd7a9d94c0221009aa34ce91080eafe5e32bf9f1de813c73e73e77f2359b3ba976763ab82f8b445014104a6948d820ed87546e963df41735a6dad058fdf6bac8e6feaea96f2c2bfb810fb040492d82fb2db064597902e247f81abca15f02821729842305a4d52a62c5bdbffffffff0200e1f505000000001976a914bbb12bcb515406b5e1b83813fe5cf3d6f271e26888ac00e1f505000000001976a9146c38279e91510470fa252d6b5be6c5ebbb60304b88ac00000000",
      "locktime": 0,
      "size": 258,
      "txid": "551d33c93e4a7d7753b621bd275314ae4fe9741a9b4e54894d36138614d182e9",
      "version": 1,
      "vin": [
        {
          "scriptSig": {
            "asm": "30450220677d594892bcd2f27e0a23db08c48c74410610a3dfed1a221470677bd7a9d94c0221009aa34ce91080eafe5e32bf9f1de813c73e73e77f2359b3ba976763ab82f8b445[ALL] 04a6948d820ed87546e963df41735a6dad058fdf6bac8e6feaea96f2c2bfb810fb040492d82fb2db064597902e247f81abca15f02821729842305a4d52a62c5bdb",
            "hex": "4830450220677d594892bcd2f27e0a23db08c48c74410610a3dfed1a221470677bd7a9d94c0221009aa34ce91080eafe5e32bf9f1de813c73e73e77f2359b3ba976763ab82f8b445014104a6948d820ed87546e963df41735a6dad058fdf6bac8e6feaea96f2c2bfb810fb040492d82fb2db064597902e247f81abca15f02821729842305a4d52a62c5bdb"
          },
          "sequence": 4294967295,
          "txid": "2feb3909d82f9b71dfe402714a62ff7ef4a8db3068ca5cc3bddc8c68a17e6294",
          "vout": 0
        }
      ],
      "vout": [
        {
          "n": 0,
          "scriptPubKey": {
            "address": "1J7RbwBP8rk7KD4Hwj7W7LyUFghnNsyZAp",
            "asm": "OP_DUP OP_HASH160 bbb12bcb515406b5e1b83813fe5cf3d6f271e268 OP_EQUALVERIFY OP_CHECKSIG",
            "desc": "addr(1J7RbwBP8rk7KD4Hwj7W7LyUFghnNsyZAp)#rvhpph59",
            "hex": "76a914bbb12bcb515406b5e1b83813fe5cf3d6f271e26888ac",
            "type": "pubkeyhash"
          },
          "value": 1.0
        },
        {
          "n": 1,
          "scriptPubKey": {
            "address": "1AsDFRJetyZ5q2e9N2MSzZGmgDg1VT7wyM",
            "asm": "OP_DUP OP_HASH160 6c38279e91510470fa252d6b5be6c5ebbb60304b OP_EQUALVERIFY OP_CHECKSIG",
            "desc": "addr(1AsDFRJetyZ5q2e9N2MSzZGmgDg1VT7wyM)#rsaq785y",
            "hex": "76a9146c38279e91510470fa252d6b5be6c5ebbb60304b88ac",
            "type": "pubkeyhash"
          },
          "value": 1.0
        }
      ],
      "vsize": 258,
      "weight": 1032
    },
    {
      "fee": 0.0,
      "hash": "481bbbaafa310605a5cd049432c7636e1ec8008bdbb420ffacb9c4a1477f0d95",
      "hex": "0100000001258e9c6c44ea3bc6712fcf9fea6d4b3658da742cb1eb17d2c3b8232e34ca2696010000008c493046022100e98efec0f4e9a026e45c9c6e127ce81f676c6fb64c9b8fcec4316ac7debb6337022100abc4b87dd23396c547f482b05af43ca991713ceb15fd2b0c100903a9d94b6628014104520ea20d1f70f645770e0d433f3eac3565a4b4a3422d7f1f158b0f4f31a7696f6fa14ac8dfd9d1f69bdb844fd64a3ec48efbce0911ad1725ed36128798969ee9ffffffff0200e1f505000000001976a914ecfaea8712871b0cabc1a3134d5835adf802582588ac40548900000000001976a91410eb92fe4af227b38566cc41c83451c3ef13addb88ac00000000",
      "locktime": 0,
      "size": 259,
      "txid": "481bbbaafa310605a5cd049432c7636e1ec8008bdbb420ffacb9c4a1477f0d95",
      "version": 1,
      "vin": [
        {
          "scriptSig": {
            "asm": "3046022100e98efec0f4e9a026e45c9c6e127ce81f676c6fb64c9b8fcec4316ac7debb6337022100abc4b87dd23396c547f482b05af43ca991713ceb15fd2b0c100903a9d94b6628[ALL] 04520ea20d1f70f645770e0d433f3eac3565a4b4a3422d7f1f158b0f4f31a7696f6fa14ac8dfd9d1f69bdb844fd64a3ec48efbce0911ad1725ed36128798969ee9",
            "hex": "493046022100e98efec0f4e9a026e45c9c6e127ce81f676c6fb64c9b8fcec4316ac7debb6337022100abc4b87dd23396c547f482b05af43ca991713ceb15fd2b0c100903a9d94b6628014104520ea20d1f70f645770e0d433f3eac3565a4b4a3422d7f1f158b0f4f31a7696f6fa14ac8dfd9d1f69bdb844fd64a3ec48efbce0911ad1725ed36128798969ee9"
          },
          "sequence": 4294967295,
          "txid": "9626ca342e23b8c3d217ebb12c74da58364b6dea9fcf2f71c63bea446c9c8e25",
          "vout": 1
        }
      ],
      "vout": [
        {
          "n": 0,
          "scriptPubKey": {
            "address": "1Nc34ELKSNmnEtsG8nqMFfuHyWdEm8DDec",
            "asm": "OP_DUP OP_HASH160 ecfaea8712871b0cabc1a3134d5835adf8025825 OP_EQUALVERIFY OP_CHECKSIG",
            "desc": "addr(1Nc34ELKSNmnEtsG8nqMFfuHyWdEm8DDec)#pnan3pps",
            "hex": "76a914ecfaea8712871b0cabc1a3134d5835adf802582588ac",
            "type": "pubkeyhash"
          },
          "value": 1.0
        },
        {
          "n": 1,
          "scriptPubKey": {
            "address": "12YU23y46aTKiUqEzbxdYThHc4HGzg339z",
            "asm": "OP_DUP OP_HASH160 10eb92fe4af227b38566cc41c83451c3ef13addb OP_EQUALVERIFY OP_CHECKSIG",
            "desc": "addr(12YU23y46aTKiUqEzbxdYThHc4HGzg339z)#9cdzceuk",
            "hex": "76a91410eb92fe4af227b38566cc41c83451c3ef13addb88ac",
            "type": "pubkeyhash"
          },
          "value": 0.09
        }
      ],
      "vsize": 259,
      "weight": 1036
    },
    {
      "fee": 0.01,
      "hash": "4437c011da6875608c20848f18d83beb8354314116bbf9e99caf8a20a2784aba",
      "hex": "0100000002a1c6ef59f257711999276ec36200dedbb087bd00b1649e320fdb1bd26c158052000000008c493046022100c2709d72cc7a43e4d2fdf7e58b7a7177763110a17111342d15be62c23380224e02210087928784e7392874c86f053bf23c70ab0347d02226e761431c42dc895ce4148c0141047a2cb9249f94c2d6887fcc6f364fc8d4c1d4299177cf51b35536746dc203f9c01165d71fd1a38ec3edc44829b7a1e1862be87d89c0add9386ab47d74faed797cffffffffbd273b4798f26a90963cfeed563fc3d734ac27c01b70e9fea3a4a16a87789ab0010000008b48304502203db4d210e44a04c203c8c8c365bd95ac4042e218799c6a633c5b36424028685e022100c71746b44fe60ecf15060316d89cbd89f6fd57801cea977d2216cdc19cfbba430141048e61517ea63459683f92964c0e31aac62ced82199ead71b388109f5114884c31b80c89b2c3972fa1e805b7acd5bcaeb86833ce3d79000b67cf68d50abc3e3bb6ffffffff02c07fdc0b000000001976a914b2996ebaa49babdb25aed2b871a7df33eeea1e6b88ac00e40b54020000001976a914ffac8d79f4464311ad69c6f9717d59271a52badc88ac00000000",
      "locktime": 0,
      "size": 439,
      "txid": "4437c011da6875608c20848f18d83beb8354314116bbf9e99caf8a20a2784aba",
      "version": 1,
      "vin": [
        {
          "scriptSig": {
            "asm": "3046022100c2709d72cc7a43e4d2fdf7e58b7a7177763110a17111342d15be62c23380224e02210087928784e7392874c86f053bf23c70ab0347d02226e761431c42dc895ce4148c[ALL] 047a2cb9249f94c2d6887fcc6f364fc8d4c1d4299177cf51b35536746dc203f9c01165d71fd1a38ec3edc44829b7a1e1862be87d89c0add9386ab47d74faed797c",
            "hex": "493046022100c2709d72cc7a43e4d2fdf7e58b7a7177763110a17111342d15be62c23380224e02210087928784e7392874c86f053bf23c70ab0347d02226e761431c42dc895ce4148c0141047a2cb9249f94c2d6887fcc6f364fc8d4c1d4299177cf51b35536746dc203f9c01165d71fd1a38ec3edc44829b7a1e1862be87d89c0add9386ab47d74faed797c"
          },
          "sequence": 4294967295,
          "txid": "5280156cd21bdb0f329e64b100bd87b0dbde0062c36e2799197157f259efc6a1",
          "vout": 0
        },
        {
          "scriptSig": {
            "asm": "304502203db4d210e44a04c203c8c8c365bd95ac4042e218799c6a633c5b36424028685e022100c71746b44fe60ecf15060316d89cbd89f6fd57801cea977d2216cdc19cfbba43[ALL] 048e61517ea63459683f92964c0e31aac62ced82199ead71b388109f5114884c31b80c89b2c3972fa1e805b7acd5bcaeb86833ce3d79000b67cf68d50abc3e3bb6",
            "hex": "48304502203db4d210e44a04c203c8c8c365bd95ac4042e218799c6a633c5b36424028685e022100c71746b44fe60ecf15060316d89cbd89f6fd57801cea977d2216cdc19cfbba430141048e61517ea63459683f92964c0e31aac62ced82199ead71b388109f5114884c31b80c89b2c3972fa1e805b7acd5bcaeb86833ce3d79000b67cf68d50abc3e3bb6"
          },
          "sequence": 4294967295,
          "txid": "b09a78876aa1a4a3fee9701bc027ac34d7c33f56edfe3c96906af298473b27bd",
          "vout": 1
        }
      ],
      "vout": [
        {
          "n": 0,
          "scriptPubKey": {
            "address": "1HHM5psDRaSyrE4Q7xsXofDtTNUpkEdS2a",
            "asm": "OP_DUP OP_HASH160 b2996ebaa49babdb25aed2b871a7df33eeea1e6b OP_EQUALVERIFY OP_CHECKSIG",
            "desc": "addr(1HHM5psDRaSyrE4Q7xsXofDtTNUpkEdS2a)#mnl3e5wu",
            "hex": "76a914b2996ebaa49babdb25aed2b871a7df33eeea1e6b88ac",
            "type": "pubkeyhash"
          },
          "value": 1.99
        },
        {
          "n": 1,
          "scriptPubKey": {
            "address": "1QJt25uK5cvNgfwViK7sBeuAFWxAL3ty6A",
            "asm": "OP_DUP OP_HASH160 ffac8d79f4464311ad69c6f9717d59271a52badc OP_EQUALVERIFY OP_CHECKSIG",
            "desc": "addr(1QJt25uK5cvNgfwViK7sBeuAFWxAL3ty6A)#m0qm6gu8",
            "hex": "76a914ffac8d79f4464311ad69c6f9717d59271a52badc88ac",
            "type": "pubkeyhash"
          },
          "value": 100.0
        }
      ],
      "vsize": 439,
      "weight": 1756
    },
    {
      "fee": 0.0,
      "hash": "136a01c0ab4943a501cf4f44484202ccfe41b93a8a2d7d1fc2874295a86d59c3",
      "hex": "010000000131cee96bb572eabd64d6e9cf01f78277fb0c50a06ee8aeb5d3c30e796a01ebb7010000008c493046022100ee18e95b32ec1c48cdba88557e0fb776177d049f0dae2f79fe5df0182e8e4d18022100ff31510608a78a93994d450049d191f4cdb0df170736d77c18d6f294b5ca6e890141040bc454d95b67494ba18a49cd632d88ee4226d10baf61d2c00b1816249829c16d7a1eec973870977584d9a1fb317a00810742814d9b2e78ab5d6997b0736aa130ffffffff0280fe210a000000001976a9146bc74af2c5d0b74b61f156fd7f545a049647f4fb88ac002d3101000000001976a9142fec523114bd1eae78abe844c12b0320875cc46688ac00000000",
      "locktime": 0,
      "size": 259,
      "txid": "136a01c0ab4943a501cf4f44484202ccfe41b93a8a2d7d1fc2874295a86d59c3",
      "version": 1,
      "vin": [
        {
          "scriptSig": {
            "asm": "3046022100ee18e95b32ec1c48cdba88557e0fb776177d049f0dae2f79fe5df0182e8e4d18022100ff31510608a78a93994d450049d191f4cdb0df170736d77c18d6f294b5ca6e89[ALL] 040bc454d95b67494ba18a49cd632d88ee4226d10baf61d2c00b1816249829c16d7a1eec973870977584d9a1fb317a00810742814d9b2e78ab5d6997b0736aa130",
            "hex": "493046022100ee18e95b32ec1c48cdba88557e0fb776177d049f0dae2f79fe5df0182e8e4d18022100ff31510608a78a93994d450049d191f4cdb0df170736d77c18d6f294b5ca6e890141040bc454d95b67494ba18a49cd632d88ee4226d10baf61d2c00b1816249829c16d7a1eec973870977584d9a1fb317a00810742814d9b2e78ab5d6997b0736aa130"
          },
          "sequence": 4294967295,
          "txid": "b7eb016a790ec3d3b5aee86ea0500cfb7782f701cfe9d664bdea72b56be9ce31",
          "vout": 1
        }
      ],
      "vout": [
        {
          "n": 0,
          "scriptPubKey": {
            "address": "1Apt3dYWZYjFq2QE7M5aVetVUTJsFpQHA9",
            "asm": "OP_DUP OP_HASH160 6bc74af2c5d0b74b61f156fd7f545a049647f4fb OP_EQUALVERIFY OP_CHECKSIG",
            "desc": "addr(1Apt3dYWZYjFq2QE7M5aVetVUTJsFpQHA9)#m5vdycw0",
            "hex": "76a9146bc74af2c5d0b74b61f156fd7f545a049647f4fb88ac",
            "type": "pubkeyhash"
          },
          "value": 1.7
        },
        {
          "n": 1,
          "scriptPubKey": {
            "address": "15NPrth7yfoXuSPQ41dXp2te66tr7Edy6F",
            "asm": "OP_DUP OP_HASH160 2fec523114bd1eae78abe844c12b0320875cc466 OP_EQUALVERIFY OP_CHECKSIG",
            "desc": "addr(15NPrth7yfoXuSPQ41dXp2te66tr7Edy6F)#mxvwsktq",
            "hex": "76a9142fec523114bd1eae78abe844c12b0320875cc46688ac",
            "type": "pubkeyhash"
          },
          "value": 0.2
        }
      ],
      "vsize": 259,
      "weight": 1036
    },
    {
      "fee": 0.0,
      "hash": "67784993545a27ace47e5dd293f4fbf0bfea8ac706634497acf6ded523c93807",
      "hex": "01000000065ab1385660b693c1ceb030323cf1c347ff46894a669e6ff86392a075b4a1bcd5010000008b483045022070fbd215a18612e1724ab64ccce27de5c2ed7e10c4507b978996361955abc2f4022100b69c08e0c1e6d64b6f19e1eacc709c87b9bce97c7fcc1ad2265b7f12e9ef59cb0141045fcc4fcb65255fe4017fa9c590bbc0a72cd1c8384f04ea36d3c0fbd0769ead2b587d1169fae5bfb2f9281e3f6fc7d645fb79e709d96705d015b2261cb9b58677ffffffffb75d3e25c97380dccbf0b391dc9f4d8f97c52801a59ef86a537390bb53da5a70010000008b483045022100eeb3cbbac5f93173f811ab9a32ee01f3f3400802fe1b361328b284907110cdcb02203d3e86fd1b9a39acb13149a79073f462341038b7846b4014a41415002118935e0141045fcc4fcb65255fe4017fa9c590bbc0a72cd1c8384f04ea36d3c0fbd0769ead2b587d1169fae5bfb2f9281e3f6fc7d645fb79e709d96705d015b2261cb9b58677ffffffffe5e9164fb46c5c32404360644f0c5b52098ce7044070042d08e33c2aa5808bd8010000008b4830450221008f6ef699d189e6dcedbaaa494db8401781a5a193843c446ecf8ecdae1777c499022000e3b94fe9a1a181070cf2cef0fdee5a690217a35cb6cca9faab1118e0f78e310141045fcc4fcb65255fe4017fa9c590bbc0a72cd1c8384f04ea36d3c0fbd0769ead2b587d1169fae5bfb2f9281e3f6fc7d645fb79e709d96705d015b2261cb9b58677ffffffffffb9c0e2640b012865818fb1ac0b52a4d1fc0da879893f1bf13ff18f7fe4a1ea010000008c493046022100fe2cc35a43aef293cb677f4d4140d65509ba8d9dd0ec5c3aae34c51076d0b6e8022100cea792df21c53f968125365966d0ef43bc8642a7f68c835a92d9a9719ec45f440141045fcc4fcb65255fe4017fa9c590bbc0a72cd1c8384f04ea36d3c0fbd0769ead2b587d1169fae5bfb2f9281e3f6fc7d645fb79e709d96705d015b2261cb9b58677ffffffffdbe5e7554c9015cb62580db99cf8bab69868e7356ef90a5da2d10f85d251dec2010000008b483045022100b052bf5648e01636b3b5f7c03aed6b52c1641d365dfd3187495c3d7f6f17703f02202c7ed9f46aa37574e0ac63fc1a4c32937e1d24f4f26ad997caa184f73037d1c10141045fcc4fcb65255fe4017fa9c590bbc0a72cd1c8384f04ea36d3c0fbd0769ead2b587d1169fae5bfb2f9281e3f6fc7d645fb79e709d96705d015b2261cb9b58677ffffffff6a493496f88206c767642fd8b8a18cbcdf0acd6e6966f289198017a5ddea4995010000008a47304402203401d9feefc1d70f631dda27cf34e9dd49344264fd4e626195c2f693a0a07f3b02206f7f0252db74e23f736a117fa81fd432cde5dfdb4d0344a8d3d3c6d75a64c1970141045fcc4fcb65255fe4017fa9c590bbc0a72cd1c8384f04ea36d3c0fbd0769ead2b587d1169fae5bfb2f9281e3f6fc7d645fb79e709d96705d015b2261cb9b58677ffffffff01c05be80a000000001976a9146fecde929f47df28b124dae789f50ca2c5546fb788ac00000000",
      "locktime": 0,
      "size": 1124,
      "txid": "67784993545a27ace47e5dd293f4fbf0bfea8ac706634497acf6ded523c93807",
      "version": 1,
      "vin": [
        {
          "scriptSig": {
            "asm": "3045022070fbd215a18612e1724ab64ccce27de5c2ed7e10c4507b978996361955abc2f4022100b69c08e0c1e6d64b6f19e1eacc709c87b9bce97c7fcc1ad2265b7f12e9ef59cb[ALL] 045fcc4fcb65255fe4017fa9c590bbc0a72cd1c8384f04ea36d3c0fbd0769ead2b587d1169fae5bfb2f9281e3f6fc7d645fb79e709d96705d015b2261cb9b58677",
            "hex": "483045022070fbd215a18612e1724ab64ccce27de5c2ed7e10c4507b978996361955abc2f4022100b69c08e0c1e6d64b6f19e1eacc709c87b9bce97c7fcc1ad2265b7f12e9ef59cb0141045fcc4fcb65255fe4017fa9c590bbc0a72cd1c8384f04ea36d3c0fbd0769ead2b587d1169fae5bfb2f9281e3f6fc7d645fb79e709d96705d015b2261cb9b58677"
          },
          "sequence": 4294967295,
          "txid": "d5bca1b475a09263f86f9e664a8946ff47c3f13c3230b0cec193b6605638b15a",
          "vout": 1
        },
        {
          "scriptSig": {
            "asm": "3045022100eeb3cbbac5f93173f811ab9a32ee01f3f3400802fe1b361328b284907110cdcb02203d3e86fd1b9a39acb13149a79073f462341038b7846b4014a41415002118935e[ALL] 045fcc4fcb65255fe4017fa9c590bbc0a72cd1c8384f04ea36d3c0fbd0769ead2b587d1169fae5bfb2f9281e3f6fc7d645fb79e709d96705d015b2261cb9b58677",
            "hex": "483045022100eeb3cbbac5f93173f811ab9a32ee01f3f3400802fe1b361328b284907110cdcb02203d3e86fd1b9a39acb13149a79073f462341038b7846b4014a41415002118935e0141045fcc4fcb65255fe4017fa9c590bbc0a72cd1c8384f04ea36d3c0fbd0769ead2b587d1169fae5bfb2f9281e3f6fc7d645fb79e709d96705d015b2261cb9b58677"
          },
          "sequence": 4294967295,
          "txid": "705ada53bb9073536af89ea50128c5978f4d9fdc91b3f0cbdc8073c9253e5db7",
          "vout": 1
        },
        {
          "scriptSig": {
            "asm": "30450221008f6ef699d189e6dcedbaaa494db8401781a5a193843c446ecf8ecdae1777c499022000e3b94fe9a1a181070cf2cef0fdee5a690217a35cb6cca9faab1118e0f78e31[ALL] 045fcc4fcb65255fe4017fa9c590bbc0a72cd1c8384f04ea36d3c0fbd0769ead2b587d1169fae5bfb2f9281e3f6fc7d645fb79e709d96705d015b2261cb9b58677",
            "hex": "4830450221008f6ef699d189e6dcedbaaa494db8401781a5a193843c446ecf8ecdae1777c499022000e3b94fe9a1a181070cf2cef0fdee5a690217a35cb6cca9faab1118e0f78e310141045fcc4fcb65255fe4017fa9c590bbc0a72cd1c8384f04ea36d3c0fbd0769ead2b587d1169fae5bfb2f9281e3f6fc7d645fb79e709d96705d015b2261cb9b58677"
          },
          "sequence": 4294967295,
          "txid": "d88b80a52a3ce3082d04704004e78c09525b0c4f64604340325c6cb44f16e9e5",
          "vout": 1
        },
        {
          "scriptSig": {
            "asm": "3046022100fe2cc35a43aef293cb677f4d4140d65509ba8d9dd0ec5c3aae34c51076d0b6e8022100cea792df21c53f968125365966d0ef43bc8642a7f68c835a92d9a9719ec45f44[ALL] 045fcc4fcb65255fe4017fa9c590bbc0a72cd1c8384f04ea36d3c0fbd0769ead2b587d1169fae5bfb2f9281e3f6fc7d645fb79e709d96705d015b2261cb9b58677",
            "hex": "493046022100fe2cc35a43aef293cb677f4d4140d65509ba8d9dd0ec5c3aae34c51076d0b6e8022100cea792df21c53f968125365966d0ef43bc8642a7f68c835a92d9a9719ec45f440141045fcc4fcb65255fe4017fa9c590bbc0a72cd1c8384f04ea36d3c0fbd0769ead2b587d1169fae5bfb2f9281e3f6fc7d645fb79e709d96705d015b2261cb9b58677"
          },
          "sequence": 4294967295,
          "txid": "eaa1e47f8ff13ff11b3f8979a80dfcd1a4520bacb18f816528010b64e2c0b9ff",
          "vout": 1
        },
        {
          "scriptSig": {
            "asm": "3045022100b052bf5648e01636b3b5f7c03aed6b52c1641d365dfd3187495c3d7f6f17703f02202c7ed9f46aa37574e0ac63fc1a4c32937e1d24f4f26ad997caa184f73037d1c1[ALL] 045fcc4fcb65255fe4017fa9c590bbc0a72cd1c8384f04ea36d3c0fbd0769ead2b587d1169fae5bfb2f9281e3f6fc7d645fb79e709d96705d015b2261cb9b58677",
            "hex": "483045022100b052bf5648e01636b3b5f7c03aed6b52c1641d365dfd3187495c3d7f6f17703f02202c7ed9f46aa37574e0ac63fc1a4c32937e1d24f4f26ad997caa184f73037d1c10141045fcc4fcb65255fe4017fa9c590bbc0a72cd1c8384f04ea36d3c0fbd0769ead2b587d1169fae5bfb2f9281e3f6fc7d645fb79e709d96705d015b2261cb9b58677"
          },
          "sequence": 4294967295,
          "txid": "c2de51d2850fd1a25d0af96e35e76898b6baf89cb90d5862cb15904c55e7e5db",
          "vout": 1
        },
        {
          "scriptSig": {
            "asm": "304402203401d9feefc1d70f631dda27cf34e9dd49344264fd4e626195c2f693a0a07f3b02206f7f0252db74e23f736a117fa81fd432cde5dfdb4d0344a8d3d3c6d75a64c197[ALL] 045fcc4fcb65255fe4017fa9c590bbc0a72cd1c8384f04ea36d3c0fbd0769ead2b587d1169fae5bfb2f9281e3f6fc7d645fb79e709d96705d015b2261cb9b58677",
            "hex": "47304402203401d9feefc1d70f631dda27cf34e9dd49344264fd4e626195c2f693a0a07f3b02206f7f0252db74e23f736a117fa81fd432cde5dfdb4d0344a8d3d3c6d75a64c1970141045fcc4fcb65255fe4017fa9c590bbc0a72cd1c8384f04ea36d3c0fbd0769ead2b587d1169fae5bfb2f9281e3f6fc7d645fb79e709d96705d015b2261cb9b58677"
          },
          "sequence": 4294967295,
          "txid": "9549eadda517801989f266696ecd0adfbc8ca1b8d82f6467c70682f89634496a",
          "vout": 1
        }
      ],
      "vout": [
        {
          "n": 0,
          "scriptPubKey": {
            "address": "1BComGd435EQv8Djv8S2S4qk3RLLjRQvju",
            "asm": "OP_DUP OP_HASH160 6fecde929f47df28b124dae789f50ca2c5546fb7 OP_EQUALVERIFY OP_CHECKSIG",
            "desc": "addr(1BComGd435EQv8Djv8S2S4qk3RLLjRQvju)#gae6l92a",
            "hex": "76a9146fecde929f47df28b124dae789f50ca2c5546fb788ac",
            "type": "pubkeyhash"
          },
          "value": 1.83
        }
      ],
      "vsize": 1124,
      "weight": 4496
    },
    {
      "fee": 0.0,
      "hash": "097e521fee933133729cfc34424c4277b36240b13ae4b01fda17756da1848c1e",
      "hex": "0100000001a12fe5d6cfe6b642ce69f80bf14ffb793d3ad819e64767f2dfc2c42de4ce7642370000008a4730440220246e20034a4c2a215a5d27a31fc2fe61a6c5f0da424817821451423a788e14aa022059cf46b13d2cfbb1aa7268593a1357ebaa6d14b42a4d10f73d88aa7ff0f799a40141041e36d2a8bfd2911829cdc52faa7116f1f24320520796ccb76002447d2ccdbd698c49759a85c9c817e65e41522c47d238046d957eb72c695f3cc83d2946851e5fffffffff029de7e400000000001976a9149dc53ca382aea9d38d6f010d14df2ccca4ce310688ac00e1f505000000001976a914a5f3fb6585ba937be9b69fbc2d249fca2143af1388ac00000000",
      "locktime": 0,
      "size": 257,
      "txid": "097e521fee933133729cfc34424c4277b36240b13ae4b01fda17756da1848c1e",
      "version": 1,
      "vin": [
        {
          "scriptSig": {
            "asm": "30440220246e20034a4c2a215a5d27a31fc2fe61a6c5f0da424817821451423a788e14aa022059cf46b13d2cfbb1aa7268593a1357ebaa6d14b42a4d10f73d88aa7ff0f799a4[ALL] 041e36d2a8bfd2911829cdc52faa7116f1f24320520796ccb76002447d2ccdbd698c49759a85c9c817e65e41522c47d238046d957eb72c695f3cc83d2946851e5f",
            "hex": "4730440220246e20034a4c2a215a5d27a31fc2fe61a6c5f0da424817821451423a788e14aa022059cf46b13d2cfbb1aa7268593a1357ebaa6d14b42a4d10f73d88aa7ff0f799a40141041e36d2a8bfd2911829cdc52faa7116f1f24320520796ccb76002447d2ccdbd698c49759a85c9c817e65e41522c47d238046d957eb72c695f3cc83d2946851e5f"
          },
          "sequence": 4294967295,
          "txid": "4276cee42dc4c2dff26747e619d83a3d79fb4ff10bf869ce42b6e6cfd6e52fa1",
          "vout": 55
        }
      ],
      "vout": [
        {
          "n": 0,
          "scriptPubKey": {
            "address": "1FPDNNmgwEnKuF7GQzSqUcVQdzSRhz4pgX",
            "asm": "OP_DUP OP_HASH160 9dc53ca382aea9d38d6f010d14df2ccca4ce3106 OP_EQUALVERIFY OP_CHECKSIG",
            "desc": "addr(1FPDNNmgwEnKuF7GQzSqUcVQdzSRhz4pgX)#vey4q7p4",
            "hex": "76a9149dc53ca382aea9d38d6f010d14df2ccca4ce310688ac",
            "type": "pubkeyhash"
          },
          "value": 0.15001501
        },
        {
          "n": 1,
          "scriptPubKey": {
            "address": "1G8UmpYr4kjQj1iJzupRX29tV4LA3wt6xD",
            "asm": "OP_DUP OP_HASH160 a5f3fb6585ba937be9b69fbc2d249fca2143af13 OP_EQUALVERIFY OP_CHECKSIG",
            "desc": "addr(1G8UmpYr4kjQj1iJzupRX29tV4LA3wt6xD)#ygdq8zkh",
            "hex": "76a914a5f3fb6585ba937be9b69fbc2d249fca2143af1388ac",
            "type": "pubkeyhash"
          },
          "value": 1.0
        }
      ],
      "vsize": 257,
      "weight": 1028
    },
    {
      "fee": 0.0,
      "hash": "8ff78938648b2fb5d2dfe4094f98b8e2a34d53064abbca4b17db271001ae4078",
      "hex": "01000000013ab154a72711206118a79880c92d82154bff51d042220738f28f81a49f6fde88000000008a4730440220423fbf03b3d31418d465e4a6183c3d7555860d235a2770a28ced5e36c5035594022057d61d34d1daf308fbe3e87922e284d6c0534ed34f5dda520a1a6d81375911fc0141041f6e045f3ba7c947ae1237f6a20fac1fcfc430ebc31b7e204a8b04518b4cdad704c1b9033a311cbd05f0353c058e206ff92f8b884fe14c9680118b3aa97dfd4effffffff0280cc0602000000001976a914d4ac8b812f6cf392c38945ccda41c1e822ab3af488ac40db1c04000000001976a9144598675cb998545a053383cab113c1d46d42410b88ac00000000",
      "locktime": 0,
      "size": 257,
      "txid": "8ff78938648b2fb5d2dfe4094f98b8e2a34d53064abbca4b17db271001ae4078",
      "version": 1,
      "vin": [
        {
          "scriptSig": {
            "asm": "30440220423fbf03b3d31418d465e4a6183c3d7555860d235a2770a28ced5e36c5035594022057d61d34d1daf308fbe3e87922e284d6c0534ed34f5dda520a1a6d81375911fc[ALL] 041f6e045f3ba7c947ae1237f6a20fac1fcfc430ebc31b7e204a8b04518b4cdad704c1b9033a311cbd05f0353c058e206ff92f8b884fe14c9680118b3aa97dfd4e",
            "hex": "4730440220423fbf03b3d31418d465e4a6183c3d7555860d235a2770a28ced5e36c5035594022057d61d34d1daf308fbe3e87922e284d6c0534ed34f5dda520a1a6d81375911fc0141041f6e045f3ba7c947ae1237f6a20fac1fcfc430ebc31b7e204a8b04518b4cdad704c1b9033a311cbd05f0353c058e206ff92f8b884fe14c9680118b3aa97dfd4e"
          },
          "sequence": 4294967295,
          "txid": "88de6f9fa4818ff238072242d051ff4b15822dc98098a71861201127a754b13a",
          "vout": 0
        }
      ],
      "vout": [
        {
          "n": 0,
          "scriptPubKey": {
            "address": "1LPWxJSPsE5CtuYHTHp2zfLNghPbwcpvM2",
            "asm": "OP_DUP OP_HASH160 d4ac8b812f6cf392c38945ccda41c1e822ab3af4 OP_EQUALVERIFY OP_CHECKSIG",
            "desc": "addr(1LPWxJSPsE5CtuYHTHp2zfLNghPbwcpvM2)#khexff53",
            "hex": "76a914d4ac8b812f6cf392c38945ccda41c1e822ab3af488ac",
            "type": "pubkeyhash"
          },
          "value": 0.34
        },
        {
          "n": 1,
          "scriptPubKey": {
            "address": "17LzCSEe6d8uvnsCKqpDEGTqvXwsJ8dZQM",
            "asm": "OP_DUP OP_HASH160 4598675cb998545a053383cab113c1d46d42410b OP_EQUALVERIFY OP_CHECKSIG",
            "desc": "addr(17LzCSEe6d8uvnsCKqpDEGTqvXwsJ8dZQM)#6phf9wh8",
            "hex": "76a9144598675cb998545a053383cab113c1d46d42410b88ac",
            "type": "pubkeyhash"
          },
          "value": 0.69
        }
      ],
      "vsize": 257,
      "weight": 1028
    }
  ],
  "version": 1,
  "versionHex": "00000001",
  "weight": 12272
}
